:100000000C9434000C9451000C9451000C94510049
:100010000C9451000C9451000C9451000C9451001C
:100020000C9451000C9451000C9451000C9451000C
:100030000C9451000C9451000C9451000C945100FC
:100040000C9451000C9451000C9451000C945100EC
:100050000C9451000C9451000C9451000C945100DC
:100060000C9451000C94510011241FBECFEFD8E026
:10007000DEBFCDBF11E0A0E0B1E0E8E7F5E002C0EF
:1000800005900D92A630B107D9F721E0A6E0B1E0C6
:1000900001C01D92AE32B207E1F70E94A9020C9492
:1000A000BA020C940000219A8AE190E090938700B4
:1000B000809386008DE090E0909389008093880083
:1000C00080E88093800082E180938100089590937E
:1000D000C5008093C40088E18093C1008EE08093C6
:1000E000C2000895E0ECF0E0908195FFFDCF809391
:1000F000C600089580E291EAA7E0B0E0E0ECF0E00D
:10010000208122231CF48091C60008950197A10943
:10011000B109B1F78FEF0895539A549A559A0895FB
:1001200080FF02C05B9A01C05B9881FF02C05C9AAD
:1001300001C05C9882FF02C05D9A08955D980895A1
:100140002F923F924F926F927F928F929F92AF9297
:10015000BF92CF92DF92EF92FF920F931F93CF93B4
:10016000DF938130A9F090912401913011F48C3CFF
:1001700079F090912301913011F48D3C49F09091E8
:100180002201913011F48E3C19F0833B09F0CFC16C
:10019000082F83E090E00E9490000E947A00182FC0
:1001A000893C09F4AEC18F3F61F08A3C51F00E9456
:1001B0007A00182F893C09F4A4C18F3F11F08A3CC2
:1001C000B1F71F3F09F4B3C11A3C09F4B0C1A12C27
:1001D000B12C612C712C812C912CE12CF12CC12C97
:1001E000D12CC0E0D0E033243394412C22242A9433
:1001F00083E090E00E9490001C3D79F48CED90E04B
:10020000E6E2F1E0918380830E947A0090E090938F
:10021000290180932801122D9DC01D3D81F40E946B
:100220007A00182F8F3F09F495C090E09093210138
:100230008093200130921A0140921B0184C01E3D20
:1002400081F40E947A00182F8F3F09F483C090E058
:1002500090931F0180931E01309218014092190162
:1002600072C0123529F4309216014092170172C003
:10027000133D29F410921701109216016BC0143D22
:10028000C1F40E947A00182F8F3F09F463C090E0F8
:100290009093090180930801309214014092150156
:1002A000109213011092120110921101109210017C
:1002B0004AC0153DC1F40E947A00182F8F3F09F4FF
:1002C00049C090E090930901809308013092140195
:1002D0004092150110921301109212011092110117
:1002E0001092100130C089E2810F8230B8F40E9470
:1002F0007A00182F8F3F71F190E09093070180935F
:1003000006013092100140921101109215011092D5
:100310001401109213011092120115C0193D29F415
:1003200030920E0140920F0115C01A3D29F430920F
:100330000C0140920D010EC01B3D29F430920A01C0
:1003400040920B0107C01F3CB9F0113D19F40E9407
:100350007A0012C01F3D09F4D8C0103E09F4D8C07D
:10036000113E09F4D8C0123E09F4D8C0133E09F476
:10037000D8C0143E09F4D8C0153E09F051C0EFE3CF
:10038000FCE93197F1F700C00000802F0E94720055
:1003900089EC0E947200C130D10539F48FED0E94C2
:1003A0007200809102010E947200F1E0CF16D10428
:1003B00039F480EE0E947200809101010E94720067
:1003C00081E0E816F10439F481EE0E947200809118
:1003D00000010E94720091E08916910439F482EEC6
:1003E0000E947200809104010E947200E1E06E168A
:1003F000710439F483EE0E947200809125010E94FD
:100400007200F1E0AF16B10439F484EE0E9472007C
:10041000809103010E9472008AEC0E94720068C001
:100420001A3C19F01F3F09F063C080911C019091A4
:100430001D01019721F410921D0110921C01809161
:100440001A0190911B01019721F410921B01109247
:100450001A018091180190911901019721F41092CD
:1004600019011092180180911601909117010197BE
:1004700001F58091100190911101892B29F01092C2
:1004800011011092100115C0809114019091150175
:10049000892B29F010921501109214010AC0809145
:1004A000120190911301892B21F0109213011092E7
:1004B000120180910E0190910F01019721F4109289
:1004C0000F0110920E0180910C0190910D01019786
:1004D00021F410920D0110920C0180910A0190916B
:1004E0000B01019721F510920B0110920A011FC018
:1004F0000E947A00182F8F3FD1F08A3C09F078CE05
:1005000016C00E947A00182F5CCEC32DD42D88CF40
:10051000C32CD42C85CFE32CF42C82CF832C942CA9
:100520007FCF632C742C7CCFA32CB42C79CFDF919C
:10053000CF911F910F91FF90EF90DF90CF90BF90E0
:10054000AF909F908F907F906F904F903F902F90A3
:1005500008958FEC90E00E9467000E9453000E9473
:100560008C0081E090E00E9490000E947A000E943E
:08057000A000FBCFF894FFCFBF
:0605780023DC7880FF0087
:00000001FF
